:020000040000FA
:1000000000040020E90800007D050000C908000088
:1000100087050000910500009B050000000000001E
:100020000000000000000000000000000D090000BA
:10003000A505000000000000AF050000B9050000A4
:10004000C3050000CD050000D7050000E105000054
:10005000EB050000F5050000FF05000009060000A3
:10006000130600001D0600002706000031060000F0
:100070003B060000450600004F0600005906000040
:10008000630600006D060000770600008106000090
:100090008B060000950600009F060000A9060000E0
:1000A000B3060000BD060000C7060000D106000030
:1000B000DB060000E5060000EF060000F906000080
:1000C000030700000D0700001707000021070000CC
:1000D0002B070000350700003F070000490700001C
:1000E000530700005D07000067070000710700006C
:1000F0007B070000850700008F07000099070000BC
:10010000A30700001FB500F003F88DE80F001FBD26
:1001100000F0E0BB1FB56FF00100009040100390AD
:10012000029001904FF010208069000B420900F00E
:100130001F045DF822300120A04083434DF8223097
:10014000684600F045F91FBDF0B54FF6FF734FF458
:10015000B4751A466E1E11E0A94201D3344600E080
:100160000C46091B30F8027B641E3B441A44F9D14B
:100170009CB204EB134394B204EB12420029EBD17E
:1001800098B200EB134002EB124140EA0140F0BD8F
:10019000DE4992B00446D1E90001CDE91001FF2209
:1001A0004021684600F03CFB94E80F008DE80F000A
:1001B000684610A902E004C841F8042D8842FAD12B
:1001C00010216846FFF7C0FF1090AA208DF8440068
:1001D000FFF7A0FF00F0F3F84FF01024A069102201
:1001E0006946803000F002F9A069082210A900F0E9
:1001F000FDF800F0D8F84FF080510A6949690068AD
:100200004A43824201D8102070470020704710B541
:10021000D0E900214FF0805002EB8103026944696C
:100220006243934209D84FF01022536903EB8103D4
:100230000169406941438B4201D9092010BD5069D1
:10024000401C01D0002010BD0F2010BD70B501680A
:100250000446AF4D4FF01020072952D2DFE801F0DD
:10026000330419293C1E2500D4E902656468294637
:10027000304600F0CDF82A462146304600F0B6F868
:10028000AA002146304600F09FFA002800D0032043
:1002900070BD00F051FB4FF4805007E0201DFFF7C8
:1002A000AAFF0028F4D100F047FB60682860002016
:1002B00070BD241D94E80700920000F085FA002824
:1002C000F6D00E2070BD8069401C12D0201DFFF7B3
:1002D0009EFF0028F6D109E08069401C09D0201D4E
:1002E000FFF789FF0028EDD1606820B12046FFF7B5
:1002F0004FFF042070BDFFF70DFF00F060F800F025
:1003000052F8072070BD10B50C46182802D0012005
:10031000086010BD2068FFF799FF206010BD4FF006
:100320001024A069401C05D0A569A66980353079E4
:10033000AA2808D06069401C2DD060690068401C64
:1003400029D060692CE010212846FFF7FDFE3168B6
:1003500081421CD1A16901F18002C03105E030B1B8
:1003600008CA51F8040D984201D1012000E0002094
:100370008A42F4D158B1286810B1042803D0FEE7AE
:10038000284600F057F862496868086008E000F005
:1003900016F800F008F84FF480500168491C01D0AD
:1003A00000F0A4FAFEE7BFF34F8F5A4801685A4A9B
:1003B00001F4E06111430160BFF34F8FFEE74FF09E
:1003C00010208169491C02D0806900F0AEB87047E6
:1003D000524A01681160121D416811604F4A8168DC
:1003E00010321160111DC068086070472DE9F0419E
:1003F00017460D460646002406E03046296800F000
:10040000A7F8641C2D1D361DBC42F6D3BDE8F08153
:1004100070B50C4605464FF4806608E0284600F0AB
:1004200084F8B44205D3A4F5806405F58055002C0A
:10043000F4D170BD4168044609B1012500E00025F2
:100440004FF010267069A268920000F0BDF9C8B1A3
:10045000204600F01AF89DB17669A56864684FF4EB
:10046000002084420AD2854208D229463046FFF74E
:10047000CFFF2A4621463046FFF7B8FFFFF79FFF20
:10048000FFF791FFFFF746FEF8E72DE9FF414FF038
:100490001024616980680D0B01EB800000F6FF708D
:1004A000010B0020009001900290024603906846E4
:1004B00001230BE0560902F01F0C50F8267003FAD6
:1004C0000CFC47EA0C0740F82670521CAA42F1D3F4
:1004D0000AE04A0901F01F0650F8225003FA06F616
:1004E000354340F82250491C8029F2D3A169090BF9
:1004F0004A0901F01F0150F822408B409C4340F80C
:100500002240FFF765FFBDE8FF8100005C090000A5
:10051000000000200CED00E00400FA050006004099
:10052000144801680029FCD07047134A0221116069
:1005300010490B68002BFCD00F4B1B1D186008687E
:100540000028FCD00020106008680028FCD070470C
:10055000094B10B501221A60064A1468002CFCD021
:10056000016010680028FCD0002018601068002886
:10057000FCD010BD00E4014004E5014008208F4993
:1005800009680958084710208C4909680958084724
:1005900014208A49096809580847182087490968BA
:1005A0000958084730208549096809580847382004
:1005B00082490968095808473C2080490968095858
:1005C000084740207D4909680958084744207B496D
:1005D00009680958084748207849096809580847B0
:1005E0004C20764909680958084750207349096822
:1005F0000958084754207149096809580847582084
:100600006E490968095808475C206C49096809580F
:100610000847602069490968095808476420674904
:100620000968095808476820644909680958084753
:100630006C20624909680958084770205F490968B9
:100640000958084774205D49096809580847782007
:100650005A490968095808477C20584909680958C7
:10066000084780205549096809580847842053499C
:1006700009680958084788205049096809580847F7
:100680008C204E4909680958084790204B49096851
:10069000095808479420494909680958084798208B
:1006A00046490968095808479C204449096809587F
:1006B0000847A0204149096809580847A4203F4934
:1006C000096809580847A8203C490968095808479B
:1006D000AC203A49096809580847B02037490968E9
:1006E00009580847B4203549096809580847B8200F
:1006F0003249096809580847BC2030490968095837
:100700000847C0202D49096809580847C4202B49CB
:10071000096809580847C82028490968095808473E
:10072000CC202649096809580847D0202349096880
:1007300009580847D4202149096809580847D82092
:100740001E49096809580847DC201C4909680958EE
:100750000847E0201949096809580847E420174963
:10076000096809580847E8201449096809580847E2
:10077000EC201249096809580847F0200F49096818
:1007800009580847F4200D49096809580847F82016
:100790000A49096809580847FC20084909680958A6
:1007A00008475FF480700549096809580847000048
:1007B00003480449024A034B704700000000002030
:1007C000680900006809000040EA010310B59B07B2
:1007D0000FD1042A0DD310C808C9121F9C42F8D0AB
:1007E00020BA19BA884201D9012010BD4FF0FF305C
:1007F00010BD1AB1D30703D0521C07E0002010BD72
:1008000010F8013B11F8014B1B1B07D110F8013BFD
:1008100011F8014B1B1B01D1921EF1D1184610BDDE
:1008200002F0FF0343EA032242EA024200F005B865
:100830007047704770474FF000020429C0F01280E3
:1008400010F0030C00F01B80CCF1040CBCF1020F83
:1008500018BF00F8012BA8BF20F8022BA1EB0C0158
:1008600000F00DB85FEAC17C24BF00F8012B00F84E
:10087000012B48BF00F8012B70474FF0000200B574
:10088000134694469646203922BFA0E80C50A0E8B3
:100890000C50B1F12001BFF4F7AF090728BFA0E861
:1008A0000C5048BF0CC05DF804EB890028BF40F82D
:1008B000042B08BF704748BF20F8022B11F0804F6F
:1008C00018BF00F8012B7047014B1B68DB68184705
:1008D0000000002009480A497047FFF7FBFFFFF7B7
:1008E00011FC00BD20BFFDE7064B1847064A10600B
:1008F000016881F30888406800470000680900002B
:10090000680900001F030000000000201EF0040F13
:100910000CBFEFF30881EFF3098188690238007892
:10092000182803D100E00000074A1047074A126860
:100930002C3212681047000000B5054B1B68054AB1
:100940009B58984700BD00000703000000000020EE
:100950005809000004000000001000000000000022
:0809600000FFFFFF0090D0032F
:10100000E00C002065730100858B0000D7720100A1
:10101000858B0000858B0000858B000000000000A0
:10102000000000000000000000000000BD7301008F
:10103000858B000000000000858B0000858B000080
:10104000257401002B740100858B0000858B000046
:10105000858B0000858B0000858B0000858B000050
:1010600031740100858B0000858B0000377401000E
:10107000858B00003D740100437401004974010038
:10108000858B0000858B0000858B0000858B000020
:10109000858B0000858B0000858B0000858B000010
:1010A000858B00004F740100858B0000858B00004C
:1010B000858B0000858B0000858B0000858B0000F0
:1010C00055740100858B0000858B0000858B000026
:1010D000858B0000858B0000858B0000858B0000D0
:1010E000858B0000858B0000858B0000858B0000C0
:1010F000858B0000858B0000858B0000858B0000B0
:10110000858B0000858B000000F002F816F017F9BF
:101110000AA090E8000C82448344AAF10107DA4552
:1011200001D116F00CF9AFF2090EBAE80F0013F076
:10113000010F18BFFB1A43F001031847286701008D
:10114000486701000A4410F8014B14F00F0508BF6E
:1011500010F8015B240908BF10F8014B6D1E05D083
:1011600010F8013B6D1E01F8013BF9D1641E03D05C
:10117000641E01F8015BFBD19142E4D3704700008B
:101180000023002400250026103A28BF78C1FBD890
:10119000520728BF30C148BF0B6070471FB500F031
:1011A00031F88DE80F001FBD8269034981614FF05E
:1011B0000100104470470000BD11000001B41EB4CE
:1011C00000B50EF089FE01B40198864601BC01B05D
:1011D0001EBD0000F0B44046494652465B460FB47F
:1011E00002A0013001B50648004700BF01BC864699
:1011F0000FBC8046894692469B46F0BC7047000073
:101200000911000016F098B870B51B4C054609206E
:101210002070A01C00F061F85920A08029462046CB
:10122000BDE8704006F05CBD06F065BD70B50C46CB
:101230001249097829B1A0F16001562908D301208B
:1012400013E0602804D0692802D043F201000CE0CA
:1012500020CC0B4E94E80E0006EB8000A0F58050E9
:10126000241FD0F8806E2846B047206070BD012052
:101270007047062070470000080000201C00002076
:101280008474010010B504460021012000F032F8FA
:1012900000210B2000F02EF80421192000F02AF87C
:1012A00004210D2000F026F804210E2000F022F881
:1012B00004210F2000F01EF80421C84300F01AF8A2
:1012C0000621162000F016F80621152000F012F86D
:1012D0002046FFF799FF002010BDA621018070472E
:1012E000FFF7A2BF002070470A487047FFF79EBF74
:1012F000704770474907090E002806DA00F00F0012
:1013000000F1E02080F8141D704700F1E02080F823
:101310000014704703F90042FE4810B5017900F14E
:101320000500490805D00AF065FABDE8104006F04E
:1013300080BB0AF046FAF8E702210BF079BB2DE9F1
:10134000FC411D4690460E460746FFF7F5FF040098
:101350000AD02078222804D3A07FC0F34010A842EE
:1013600005D10820BDE8FC8143F20200FAE7ADF8A0
:1013700000703DB101208DF802008DF803608DF8FA
:10138000048002E000208DF8020068460AF060FC4C
:10139000A07F65F34510A0770020E3E730B5044651
:1013A000A1F120000D460A2847D2DFE800F005072A
:1013B0000C19202532373C41FFDF3FE02078202800
:1013C0003CD1FFDF3AE0D3480078032836D02078BC
:1013D000242833D0252831D023282FD0FFDF2DE03B
:1013E000207822282AD0232828D8FFDF26E020785A
:1013F000222823D0FFDF21E0207822281ED02428B5
:101400001CD026281AD0272818D0292816D0FFDF6C
:1014100014E02078252811D0FFDF0FE02078252860
:101420000CD0FFDF0AE02078252807D0FFDF05E099
:101430002078282802D0FFDF00E0FFDF257030BDD4
:101440001FB50022ADF800200C88ADF802404B8893
:10145000ADF80430CA88ADF808208988ADF80610C8
:101460000021ADF80A10ADF80C1080B14FF6FF70F6
:101470000621844201D1ADF80210834201D1ADF8BA
:101480000410824203D14FF44860ADF8080068466A
:101490000AF0AEFA06F0CDFA04B010BD70B51446ED
:1014A0000D4606460EF098FF58B90DB1A54201D978
:1014B0000C2070BD002408E056F824000EF08CFFCC
:1014C00008B1102070BD641CE4B2AC42F4D300201B
:1014D00070BDF0B50024059D10B1A94203D850E0BD
:1014E00009B90020F0BD0920F0BD055DD5B107198F
:1014F00097F801C0BCF1150F2DD03BDCBCF1150FE6
:1015000038D2DFE80CF037122020262628282F2F8B
:10151000373737373737373737372000025D22BB49
:10152000641CE4B28C42F9D3DBE7022DDBD1BD7839
:101530001D70072D01D26D0701D40A20F0BD15786A
:1015400045F0010515E0EF43FF0707E0012D07D047
:1015500010E00620F0BD2F07A7F18057002FF5D02F
:101560003046F0BD1578AF0701D50B20F0BD45F032
:1015700002051570055D641C2C44E4B28C4202D94E
:10158000B1E74FF448568C42AFD3AAE710B50278C2
:10159000540809D0012243F20223012C07D0022C67
:1015A0000DD0032C13D10FE00020087005E08079E6
:1015B0000324B4EB901F0AD10A70002010BD80797B
:1015C000B2EB901F03D1F7E780798009F4D0184679
:1015D00010BD38B50C460546694600F0D6FF002818
:1015E0000DD19DF80010207861F34700207055F868
:1015F000010FC4F80100A888A4F80500002038BD38
:1016000038B51378C0B1022816D043A46D462468BB
:1016100000944C7905EB9414247864F34703137019
:1016200003280ED003F0FE0010700868C2F8010015
:101630008888A2F8050038BD23F0FE031370022845
:10164000EED1D8B240F00100EEE738B50C4609788B
:10165000222901D2082038BDADF800008DF8022003
:1016600068460AF003F906F0E4F9050003D12121E8
:101670002046FFF793FE284638BD1CB500208DF8A4
:101680000000CDF80100ADF805002248807B02285B
:1016900001D0012000E000208DF8070068460AF024
:1016A00053F9002800D0FFDF1CBD2DE9FE430400E4
:1016B00000D1FFDF2078174E20F00F00801C20F0B3
:1016C000F0007030207060680178091F162930D250
:1016D000DFE801F0FB2F2F2F52FA2F0BFAFA3FFB16
:1016E0002F2FFB6BFB2F2FFBFBF986883046FFF774
:1016F00023FE0546304609F0C2FCE0B160688079FF
:1017000085F83E0021212846FFF748FE304603F0C9
:10171000A8FB03E0840100200302FF01304604F02F
:101720000FFD314602200EF00BFEA87F20F01000C6
:10173000A877BDE8FE83207820F0F00020302070EC
:1017400006202072668060688079607206F049FB2E
:10175000D8E785882846FFF7EFFD00B9FFDF60680E
:101760008078012800D0FFDF6068817903B02846C7
:10177000BDE8F04309F0B3BD86883046FFF7DCFDD5
:10178000050000D1FFDF06F02CFB60683146C08801
:10179000288160680089688160684089A88102208A
:1017A0000EF0CEFD0020A875C3E780783C2803D05A
:1017B000002502280CD000E00125002720B13C289C
:1017C00002D0022800D0FFDF27B1FFDFFFDFB0E744
:1017D0000127F3E706F005FB1DB1B07800F0CBFE62
:1017E00088E06568A879AD1C00B9FFDF96F8028033
:1017F000B5F80290404606F0BCF8070000D1FFDFC4
:101800000022022148460BF00AF9040000D1FFDF54
:1018100022212046FFF7C2FDA17F012060F30101D4
:10182000A177298B2181698B6181A98BA18184F8A2
:1018300022808DF8080002AA032148460BF0EFF839
:1018400000B9FFDFB888ADF80400B8788DF806005D
:1018500001AA052148460BF0E2F800B9FFDFB8887D
:10186000ADF80000F8788DF802006A460421484679
:101870000BF0D5F800B9FFDF062105F1120000F0EA
:10188000A1FE18B36879800700D5FFDF6979E07D94
:1018900061F34700E075D5F80600A0616889A08370
:1018A000062105F10C0000F08DFEC8B13079410829
:1018B000607861F347006070D6F80500C4F8020054
:1018C000B6F8090015E027E021E02CE0E07D20F0EB
:1018D000FE00801CE075D5F81200A061E88ADEE702
:1018E000607820F0FE00801C6070E868C4F8020098
:1018F000288AE0803078032800D0FFDF00210846E6
:101900000EF01EFDBDE8FE43012000F020BE204683
:10191000BDE8FE4301F037BE06F063FA307C40F0CC
:101920000400307405E7BDE8FE4306F05ABA2DE91D
:10193000F047804600789146002702090C463E4653
:10194000012A75D000204FF6FF71022A71D0072AB4
:101950000AD00A2A6ED0FFDFA9F800600CB12780F8
:1019600066800020BDE8F087D8F804502A78142A51
:1019700076D006DC082A0BD00F2A17D0132A59D1AB
:101980001EE0172A09D0182A3FD0192AF7D152E0B1
:1019900012271026A888214683E01C27092664B355
:1019A0006888A080D8F804000079BDE01B270926CC
:1019B0001CB303202072D8F804004088A080CBE735
:1019C000A9783C291CD010271826AD1CACB1287969
:1019D00000B9FFDF6888A080288B6082288B208276
:1019E000688BA082A88BE082687904F10802A91DA7
:1019F000FFF706FE0120E073AEE7A9F80060B0E74C
:101A00001B270926002C7DD1F7E720271026002C64
:101A1000F3D0A180D8F8040004F10902407A2072C2
:101A2000D8F80410CB1C88781946FFF7E9FD93E736
:101A30002DE039E07AE021270A26002CDDD06888E5
:101A4000A080D8F8040000792072D8F8040040790A
:101A50006072F948017C21F0040101747CE7FFE722
:101A600022270B26002CC8D0A888A080D8F8040014
:101A700080782072D8F80400807900F0B2FD60729E
:101A8000D8F80400C07900F0ACFDA07264E798F8C3
:101A90000800022801D0FFDF5EE712271026B8F801
:101AA000020000F07CFD57E798F80820072A44D28E
:101AB000DFE802F03543433C3C3C04001127092693
:101AC000002C9AD0B8F802502846FFF735FC90F861
:101AD00022A0A58098F809002072042128460AF067
:101AE000B9FF052128460AF0B5FF002128460AF073
:101AF000B1FF012128460AF0ADFF032128460AF074
:101B0000A9FF00E010E0022128460AF0A3FF062109
:101B100028460AF09FFF504600F02DFD1CE71B27CA
:101B20000926002C8AD0A180207215E74A4621465A
:101B30004046BDE8F04701F05BBEFFDF0CE710B5A3
:101B4000BD4C207801280ED0002009F0B9FF05F027
:101B500070FF002808D1002108460EF0F1FB207824
:101B6000032802D004E0082010BDA07800F003FD97
:101B7000012000F0ECFC002010BD70B5002518B16C
:101B8000022813D0FFDF70BDFFF7D9FF0028FAD17C
:101B900006F024F90028F6D0017821F00F01891C05
:101BA00021F0F00120310170057218E08EB230464C
:101BB000FFF7C2FB040000D1FFDF20782128E2D02C
:101BC00006F00CF978B1017821F00F01891C21F0A1
:101BD000F00110310170022101724680A575BDE847
:101BE000704006F0FEB821463046BDE87040132232
:101BF0002BE52DE9F04116460C00804600D1FFDFB1
:101C0000307820F00F00801C20F0F0001030307091
:101C10002078022802D0FFDFBDE8F0814046FFF7C0
:101C20008BFB050000D1FFDF61884FF6FF700027B6
:101C3000814202D1A288824203D0814201D1A08890
:101C400048B106F0CEF82068B0606068F060208986
:101C50003082AF75E0E7A87D0128DDD1782300222E
:101C6000414602200EF0C2FA0220A875D4E738B52A
:101C700005460C4608460EF0AFFB70B9203D072D17
:101C800037D2DFE805F004062328362E1C00062094
:101C900038BD60680EF0E4FB08B1102038BD6188E3
:101CA00020886A460AF012F805F0C3FE0028F5D134
:101CB00061680029F2D0BDF800200A8038BDA07804
:101CC00000F0010120880AF032F80EE02068BDE83B
:101CD000384001F0C2BF207800F001000AF08AF815
:101CE00003E06188208809F095FFBDE8384005F0E1
:101CF000A0BE072038BD70B505460C4608460EF05C
:101D000091FB08B1102070BD203D072D1BD2DFE8EC
:101D100005F0041818181A1A18002088FFF70CFB91
:101D200020B10078222804D2082070BD43F20200BE
:101D300070BD2088A11C09F0EDFDBDE8704005F0E4
:101D400078BE062070BD072070BD3B48001D70475F
:101D500038B51421384815F074FA012000F0F7FB6B
:101D6000354C6846611D05F0CFFF9DF800102079C5
:101D700061F3470020F0010020710020A0734FF4B0
:101D80006170A0810220E073FFF7C6FA00B1FFDFA7
:101D900000F032FC01F0CAFB38BD10B50C46402102
:101DA000204615F04EFAA07F20F00300A0772020F7
:101DB00020700020A07584F8230010BD70477CB50A
:101DC00005460EF009FB08B110207CBD1A4C211D00
:101DD00060680090A06801902846FFF7FAFB002891
:101DE000F3D1FFF799FA0028EFD000996160BDF8B0
:101DF000041021819DF80610A1727CBD10B5044627
:101E00000EF010FB08B1102010BD0B4922460879D6
:101E1000491D4008FFF7F4FB002010BDFEB50D463C
:101E200004004FF0000714D00822FFF737FB00280A
:101E300014D100260BE000008401002054F8260095
:101E40006946FFF7A3FB002808D1761CF6B2AE4224
:101E5000F4D309F020FC10B143F20320FEBDF74E8D
:101E6000F770FCB100271AE054F8270002A9FFF729
:101E70008DFB00B1FFDF9DF808008DF8000054F8DD
:101E8000270050F8011FCDF801108088ADF805003B
:101E9000684609F025FC00B1FFDF7F1CFFB2AF42AE
:101EA000E2D3F5700020FEBD2DE9F0478AB015465B
:101EB000894604001DD00F4608222946FFF7EEFA96
:101EC000002810D1002612E054F826006946103090
:101ED00000F05BFB002806D13FB157F826000EF05A
:101EE0007BFA10B110200AB03CE5761CF6B2AE4287
:101EF000EAD30026A5F101081CE000BF06F1010AA3
:101F00000AF0FF0712E000BF54F82600017C4A08DF
:101F100054F827100B7CB2EB530F05D10622113079
:101F2000113115F0E3F858B17F1CFFB2AF42EBD38B
:101F30000AF0FF064645E1DB4E4624B1012003E0EE
:101F400043F20520CFE7002009F0EAFB10B909F0C1
:101F5000F3FB10B143F20420C5E75CB300270DF199
:101F6000170825E054F827006946103000F00DFBF3
:101F700000B1FFDF54F82700102250F8111FCDF8F0
:101F800001108088ADF8050054F827100DF1070006
:101F900015F0D8F896B156F827101022404615F0E3
:101FA000D1F8684609F081FB00B1FFDF7F1CFFB26A
:101FB000AF42D7D3FFF761FB002094E7404601F022
:101FC00040FEEEE730B585B004460EF005FA18B9CC
:101FD00060680EF04EFA10B1102005B030BD608878
:101FE0004AF2B811884206D82078944D28B10128C9
:101FF00006D0022804D00720EFE7FFF78DF917E09D
:102000006078022804D0032802D043F20220E4E7DB
:10201000E873C1B200200090ADF8040002292BD073
:10202000032926D0FFDF684609F0E4FB05F001FD37
:102030000028D2D1606801F0F7FD207858B1012066
:102040008DF800000DF1010001F0FBFD684609F07C
:10205000C0FE00B1FFDF2078A873FFF70EFB608899
:1020600060B1A88180B209F053FB00B1FFDF00200E
:10207000B3E78DF80500D6E74020FAE74FF461702A
:10208000EFE710B504460EF0CDF920B9606838B11D
:102090000EF0E6F908B1102010BD606801F0D1FD26
:1020A000664881896180C17B6170807B20700020DF
:1020B00010BD2DE9F04186B0054600208DF80C00DA
:1020C0008DF804008DF808008DF810001E461446A7
:1020D000884628460EF0CDF918B920460EF0C9F909
:1020E00010B1102006B097E555EA040018D01F275C
:1020F00002AB03AA414628460097FFF7EAF90028F9
:10210000F0D104AB01AA314620460097FFF7E1F970
:102110000028E7D19DF80400C00703D00A20E1E7BA
:102120000720DFE73DB12946404609F0B7FC05F03E
:1021300080FC0028D6D13CB12146304609F0B7FCDE
:1021400005F077FC0028CDD13C499DF80800487087
:102150000020C7E72DE9F04788B088464FF0000916
:1021600037A104468DF81090D1E90001CDE90501B1
:1021700020460EF031F990B92078012803D160682B
:102180000EF02AF958B92D4D4FF0010AA87B50B135
:10219000E87B022807D160680EF06BF918B11020B7
:1021A00008B0BDE8F0872878012801D00820F7E7BB
:1021B00006200AF0F1FB20B92078002867D001281A
:1021C00065D00CF041FB06460DF0D5FC301AC6B2C6
:1021D00006200AF0D9FB074606200AF0DDFB391A73
:1021E0002878022810D000200844301A10F0FF0F81
:1021F0000CD0608943F6E172A0F120019142217870
:102200000AD3012904D07DE00120EDE71320C7E7C0
:10221000E0BBA189D1BB08E0012906D06978C907D4
:1022200003D0A18991B3B4296CD8217861B1012977
:102230000ED002290AD0032964D110E084010020C5
:102240000706050403020100002609E0022607E054
:1022500008B9A08908B1042609E0012607E0032691
:10226000A87B50B1E87B022807D1606828B104A997
:102270006068FFF78BF9002892D1207A40B10128DD
:1022800008D0022808D003283CD107E03AE03BE020
:10229000002704E0012702E0022700E003270EB137
:1022A000022E0ED16FB1E87860B36878800702D053
:1022B00043F2012074E7022E03D1022F22D0032F14
:1022C00020D0207808B101280AD1404605F051FB02
:1022D000C0B14078C0B1404605F027FE85F80280C5
:1022E0006089ADF800006089ADF802008DF80460E7
:1022F000A87B0DF1050148B1E87B022818D003281E
:1023000008D119E007204BE7122049E7281D00F00B
:102310003CF900B1FFDF9DF810008DF80600207831
:1023200001280ED0A87B98B1E87B022807D00FE0E7
:1023300003208DF80500EEE78DF805A0EBE7606857
:1023400030B1606850F8011FCDF80710808802E0B6
:102350004846CDF80790ADF80B008DF80E70A07BC5
:10236000C0F34002014662F35F01C0F3800041EA1E
:10237000800005A9085C8DF80D000028C2D06846D1
:1023800009F05BFB05F055FB002893D1012009F013
:1023900097FB05F04EFB00288CD1052E14D2DFE808
:1023A00006F0030320200300A87805F0E2FA0500F8
:1023B00000D1FFDF687800B9FFDF6878401E6870E1
:1023C0005FF0030000F0C3F8012E0CD0A08950B1DB
:1023D00000228300114610460DF008FF18B10320BB
:1023E000DEE60220EEE70020DAE62DE9FC41804639
:1023F0000D46032608460EF03CF810B11020BDE84B
:10240000FC814046FEF798FF040004D02078222883
:1024100004D20820F3E743F20200F0E7A07F00F0C7
:1024200003073DB1012F0AD000202946FFF708F825
:102430000600E4D1012F04D0FFDF3046DFE70120A2
:10244000F3E7A07D2946022801D011B107E0112051
:10245000D5E7684600F0DDF90028D0D1694640464E
:1024600008F01DFF0600E8D10120A075E5E770B572
:102470000C460546FEF760FF010005D022462846BF
:10248000BDE87040FFF7E1B843F2020070BD10B53F
:1024900009F070F9BDE8104005F0CBBA0123FEF752
:1024A0004EBF00231A461946FEF749BF70B50546D0
:1024B0000C4608460DF0B6FF08B1102070BD284646
:1024C000FEF73AFF38B10178222902D3807F8006D7
:1024D00004D4082070BD43F2020070BD2146284696
:1024E00009F0E0FBBDE8704005F0A3BA38B5054639
:1024F0000C4608460DF070FF08B1102038BD284684
:10250000FEF71AFF20B10078222804D2082038BD37
:1025100043F2020038BD3748007C400701D5112046
:1025200038BD2078800802D16078800801D007206B
:1025300038BDADF8005020788DF8020060788DF835
:102540000300684609F045FA05F073FA38BD30B566
:10255000284D040008D0012C04D0022C06D0032CF6
:1025600004D0FFDF2C7030BDFFDFFBE728780128A7
:10257000F8D0FFDFF6E710B505F0FBF9040000D155
:10258000FFDF6078401C607010BD0278520804D0F4
:10259000012A02D043F202207047FEF7F7BF70B560
:1025A0000C0006460DD0FEF7C7FE050000D1FFDF88
:1025B000A68028892081288960816889A081A889CE
:1025C000E08170BD10B500231A4603E0845C23430C
:1025D000521CD2B28A42F9D30BB1002010BD0120A7
:1025E00010BD00B5012803D0022801D0FFDF002074
:1025F00000BD000084010020FE4800210160416010
:10260000018170472DE9F743044692B09146406836
:102610000DF026FF40B160680DF02BFF20B9607807
:1026200000F00300022801D0012000E00020F14E5C
:10263000307248460DF0D0FE18B1102015B0BDE83C
:10264000F08349460120FEF7FBFE0028F6D1012564
:102650008DF842504FF4C050ADF84000002210A950
:10266000284604F035F80028E8D18DF842504FF4A0
:1026700028504FF00008ADF8400047461C2168463E
:10268000CDF81C8014F0FFFD9DF81C0008AA20F076
:102690000F00401C20F0F00010308DF81C00207856
:1026A0008DF81D0061789DF81E0061F3420040F036
:1026B00001008DF81E009DF800000AA940F00200FC
:1026C0008DF800002089ADF83000ADF832706089D7
:1026D00007AFADF834000B97606810AC0E900A9409
:1026E000684603F0EAFD0028A8D1BDF8200030803C
:1026F0008DF8425042F60120ADF840009DF81E00D2
:1027000008AA20F00600801C20F001008DF81E00B1
:102710000220ADF83000ADF8340013A80E900AA9DD
:10272000684603F0CAFD002888D1BDF820007080FB
:10273000311D484600F033F9002887D18DF842500A
:1027400042F6A620ADF840001C216846CDF81C805A
:1027500014F099FD9DF81C00ADF8345020F00F00E6
:10276000401C20F0F00010308DF81C009DF81D007A
:1027700008AA20F0FF008DF81D009DF81E000AA990
:1027800020F0060040F00100801C8DF81E009DF82E
:1027900000008DF8445040F002008DF80000CDE9B3
:1027A0000A4711A80E90ADF83050684603F085FD39
:1027B000002899D1BDF82000F08000203EE73EB50A
:1027C00004460820ADF8000020460DF005FE08B1D3
:1027D00010203EBD21460120FEF732FE0028F8D130
:1027E0002088ADF804006088ADF80600A088ADF838
:1027F0000800E088ADF80A007E4801AB6A46808890
:10280000002104F05FF9BDF800100829E1D0032091
:102810003EBD1FB50446002002900820ADF8080018
:10282000CDF80CD020460DF0D7FD10B1102004B02B
:1028300010BD704802AA81884FF6FF7004F084FB37
:102840000028F4D1BDF80810082901D00320EEE7D4
:10285000BDF800102180BDF802106180BDF80410A1
:10286000A180BDF80610E180E1E701B582B0022049
:10287000ADF800005F4802AB6A464088002104F0D2
:1028800021F9BDF80010022900D003200EBD1CB5AF
:10289000002100910221ADF8001001900DF0C2FD61
:1028A00008B110201CBD53486A4641884FF6FF709E
:1028B00004F04AFBBDF800100229F3D003201CBD30
:1028C000FEB54C4C06461546207A0F46C00705D08B
:1028D00008460DF081FD18B11020FEBD0F20FEBD91
:1028E000F82D01D90C20FEBD30460DF075FD18BB4A
:1028F000208801A903F027FA0028F4D130788DF858
:102900000500208801A904F0BCF80028EBD1009054
:102910009DF800009DF8051040F002008DF80000C1
:10292000090703D040F008008DF8000020886946B0
:1029300004F044F80028D6D1ADF8085020883B4672
:1029400002AA002104F0BEF8BDF80810A942CAD0BE
:102950000320FEBD7CB5054600200090019008884C
:10296000ADF800000C46284601950DF079FD18B928
:1029700020460DF057FD08B110207CBD15B1BDF803
:10298000000050B11B486A4601884FF6FF7004F002
:10299000DBFABDF8001021807CBD0C207CBD30B579
:1029A00093B0044600200D460090142101A814F0B5
:1029B0006AFC1C2108A814F066FC9DF80000CDF804
:1029C00008D020F00F00401C20F0F00010308DF8EF
:1029D00000009DF8010020F0FF008DF801009DF837
:1029E000200040F002008DF8200001208DF8460004
:1029F00002E000009801002042F60420ADF84400F7
:102A000011A801902088ADF83C006088ADF83E0028
:102A1000A088ADF84000E088ADF842009DF80200C3
:102A200006AA20F00600801C20F001008DF80200AC
:102A30000820ADF80C00ADF810000FA8059001A912
:102A400008A803F03AFC002803D1BDF8180028803C
:102A5000002013B030BD00004FF0E0224FF40041E1
:102A60000020C2F880111D4908701D4990020860BD
:102A7000704770B5194D04462878A04202D00CB1B9
:102A800000B1FFDF2878A0420DD01649144A2C70FF
:102A90000020CCB1134E144B1436151F012C03D05B
:102AA000022C08D0FFDF70BD086002200860336090
:102AB0004FF0407005E008600320086033604FF479
:102AC00000001060286070BD086008604FF0607002
:102AD000106070BD00B5FFDF00BD000018000020D1
:102AE00008F5014000F500401802002070B50B20E9
:102AF00000F0AFF9082000F0ACF900210B2000F045
:102B0000BEF90021082000F0BAF9E54C0125656006
:102B1000A5600020C4F84001C4F84401C4F848018D
:102B20000B2000F0A1F9082000F09EF90B2000F026
:102B300085F9256070BD10B50B2000F08AF90820DA
:102B400000F087F9D648012141608160D5490A68C3
:102B5000002AFCD10021C0F84011C0F84411C0F88F
:102B600048110B2000F080F9BDE81040082000F06B
:102B70007BB910B50B2000F077F9BDE810400820B4
:102B800000F072B900B530B1012806D0022806D095
:102B9000FFDF002000BDC44800BDC44800BDC348DD
:102BA000001D00BD70B5C2494FF000400860C14D26
:102BB000C00BC5F80803C04800240460C5F84041B4
:102BC0000820C43500F045F9C5F83C41BB48047005
:102BD00070BD08B5B24A002128B1012811D00228E1
:102BE0001CD0FFDF08BD4FF48030C2F80803C2F8E4
:102BF0004803AC483C300160C2F84011BDE80840D1
:102C0000D0E74FF40030C2F80803C2F84803A548E3
:102C100040300160C2F84411A4480CE04FF4802019
:102C2000C2F80803C2F848039E4844300160C2F865
:102C300048119E48001D0068009008BD70B51646FA
:102C40000D460446022800D9FFDF002294480123E4
:102C500004F110018B4000EB8401C1F8405526B10E
:102C6000C1F84021C0F8043303E0C0F80833C1F8CC
:102C70004021C0F8443370BD2DE9F0411C46154693
:102C800030B1012834D0022839D0FFDFBDE8F0810F
:102C9000891E002221F07F411046FFF7CFFF012C53
:102CA00024D00020854E834F012470703C618249FE
:102CB00000203C3908600220091D08607E4904207C
:102CC000303908607C483D350560C7F8004208206F
:102CD00000F0CAF82004C7F80403082000F0AEF89A
:102CE0007349E007091F08603470CFE70120D9E776
:102CF000012B02D00022012005E00122FBE7012B7D
:102D000004D000220220BDE8F04197E70122F9E754
:102D100064480068704770B5614CD4F840010025E4
:102D2000012809D1D4F80803C00305D54FF4803039
:102D3000C4F80803C4F84051D4F8440101280CD168
:102D4000D4F80803800308D54FF40030C4F8080312
:102D5000C4F8445101200CF0D0FBD4F848010128FC
:102D60000ED1D4F8080340030AD54FF48020C4F8EC
:102D70000803C4F84851BDE8704002200CF0BDBB08
:102D800070BD10B54D4C207850B1FFF70BFF607847
:102D9000002807D000206070BDE810400CF0ADBBEB
:102DA0000320F9E710BD4FF0E0214FF40010C1F807
:102DB00000027047152000F057B83E490120086115
:102DC000082000F051B83B494FF47C10C1F80803CB
:102DD0000020024601EB8003C3F84025C3F84021E0
:102DE000401CC0B20628F5D37047410A43F6095289
:102DF0005143C0F3080010FB02F000F5807001EBB6
:102E00005020704710B5430B48F2376463431B0CE6
:102E10005C020C602A4C03FB04002A4B4CF2F724A2
:102E200043435B0D13FB04F404EB402000F580707A
:102E30004012107008681844086010BD00F01F02AE
:102E4000012191404009800000F1E020C0F800110C
:102E5000704700F01F02012191404009800000F1FD
:102E6000E020C0F88011704700F01F02012191405E
:102E70004009800000F1E020C0F880127047490747
:102E8000090E002806DA00F00F0000F1E02080F8BB
:102E9000141D704700F1E02080F800147047000016
:102EA00000B0004004B500404081004044B1004003
:102EB00008F50140008000404085004030000020BF
:102EC000F7C2FFFF6F0C01000CF0ABBB0449002000
:102ED00008604FF0E0210220C1F880027047000036
:102EE000FC1F004010B50D2000F067F8C4B26FF071
:102EF000040000F062F8C0B2844200D0FFDF36491F
:102F00000120086010BD70B50D2000F040F8334C72
:102F10000020C4F800010125C4F804530D2000F07E
:102F200041F825604FF0E0216014C1F8000170BD48
:102F300010B50D2000F02BF8284801214160002138
:102F4000C0F80011BDE810400D2000F02BB8234957
:102F500010B5D1F80001012801D0FFDF10BD1E48D7
:102F6000001D00680022C0B2C1F80021BDE8104079
:102F70000CF02CBF10B51948D0F800110029FBD077
:102F8000FFF7E5FFBDE810400D2000F00BB800F0A2
:102F90001F02012191404009800000F1E020C0F8AB
:102FA0008011704700F01F0201219140400980000C
:102FB00000F1E020C0F880127047002806DA00F027
:102FC0000F0000F1E02090F8140D03E000F1E02084
:102FD00090F800044009704704D5004000D000403C
:102FE0007047704770477047704770477047704729
:102FF0007047704770477047704770477047704719
:103000002CFFFFFFDBE5B15100800100A600FFFFB0
:1030100070000000284F4C00DA0D499A2F95338438
:1030200077AC2F1307CD6F7D177A70DE10B504468D
:103030000DF0D2F908B1102010BD2078C0F30210B5
:10304000042807D86078072804D3A178102901D86C
:10305000814201D2072010BDE078410706D42179D2
:103060004A0703D4000701D4080701D5062010BD84
:10307000002010BD70B514460D46064604F0AEFEA5
:1030800080B10178182221F00F01891C21F0F00194
:10309000A03100F8081B214614F099F8BDE87040F3
:1030A00004F09FBE29463046BDE870401322FEF76B
:1030B000CCBA2DE9F047064608A8894690E83004C6
:1030C0001F4690461421284614F0DDF80021CAF866
:1030D0000010B8F1000F03D0B9F1000F03D114E0D4
:1030E0003878C00711D020680DF09CF9C0BBB8F14A
:1030F000000F07D120681230286020681430686003
:103100002068A8602168CAF800103878800724D5A4
:1031100060680DF0A5F918BBB9F1000F21D0FEF7DA
:1031200014FE0168C6F868118188A6F86C118079D0
:1031300086F86E0101F02FFAF74FEF60626862B116
:1031400096F8680106F2691140081032FEF758FA45
:1031500010223946606813F0F5FF0020BDE8F087C3
:1031600006E0606820B1E8606068C6F86401F4E7D2
:103170001020F3E730B5054608780C4620F00F0024
:10318000401C20F0F001103121700020607095F893
:10319000230030B104280FD0052811D0062814D000
:1031A000FFDF20780121B1EB101F04D295F8200039
:1031B00000F01F00607030BD21F0F000203002E010
:1031C00021F0F00030302070EBE721F0F0004030CB
:1031D000F9E7F0B591B0022715460C4606463A4687
:1031E000ADF80870082103AB07F04EFE04900028EC
:1031F00010D004208DF804008DF80170E034099699
:1032000005948DF818500AA968460BF003F900B12F
:10321000FFDF012011B0F0BD2DE9F84F0646808A8E
:103220000C4680B28246FEF787F80546BA4F3078E2
:10323000203F4FF005094FF000080F287CD2DFE84F
:1032400000F07BA39D082C5B6A7CBADAFC97489758
:1032500097000121504609F0EBFB040000D1FFDF8D
:1032600097F85C00C00701D0386E0BE0032104F131
:103270001D000CF08CFDD4F81D00A849B0FBF1F244
:1032800001FB1200C4F81D0070686067B068A06799
:103290002878252872D0FFDF70E00121504609F020
:1032A000C7FB060000D1FFDF3078810702D52978FF
:1032B000252904D040F001003070BDE8F88F0220CD
:1032C0002070307F207106F11D002D36C4E9020602
:1032D000F3E70121504609F0ABFB050000D1FFDF09
:1032E0002878C10604D5072020703D356560E4E7E5
:1032F00040F008002870E0E7E87FC00600D5FFDF57
:10330000307CB28800F0010301B05046BDE8F04FB8
:10331000082107F0EFBE05B9FFDF716821B1102267
:1033200005F1240013F00EFF28212846FEF736F899
:10333000307A85F82000C0E7F6E00121504609F018
:1033400077FB050000D1FFDF022105F185000CF0BD
:103350001EFD0420207005F5B4706060B5F885008E
:1033600020826D4810387C356561C4E90270A4E79D
:103370000121504609F05CFB00B9FFDF32462946C7
:103380005046BDE8F84F75E605B9FFDF28782128DB
:1033900093D93079012803D1E87F40F01000E87715
:1033A000324629465046FFF765FE2846BDE8F84FED
:1033B0002321FDF7F3BF3279A28004F1080308212D
:1033C000504607F061FDE06010B184F8009074E7AA
:1033D00045460121504609F02BFB040000D1FFDFD8
:1033E00004F1620102231022081F09F0C6F90570DA
:1033F0003179417061E70121504609F019FB040061
:1034000000D1FFDF94F8840000F00300012857D1B9
:10341000E87FC0F340021AB994F8A000C00729D091
:10342000D4F8601129B394F88330087C63F38700E3
:103430000874EB7F63F3410000E071E0D4F86011A1
:103440000874D4F8601162F30000087492B1D4F8E3
:103450006001102205F12401883413F073FE207EF0
:1034600040F001002076207820F0010004F888095F
:1034700018E0BAB994F88800C00713D0D4F85C11EA
:1034800081B194F88330087C63F387000874EB7F84
:10349000D4F85C1163F341000874D4F85C1162F352
:1034A0000000087494F88800800709D594F87C001F
:1034B000D4F86421400804F17D011032FEF7A0F831
:1034C0008DF8009094F884006A4600F003008DF8AF
:1034D000010094F888108DF8021094F8A0008DF87F
:1034E00003002946504601F03FF82878252805D0EA
:1034F000212807D0FFDF2878222803D92221284657
:10350000FDF74CFF0121504609F0A4FA00283FF4D2
:10351000DFAEFFDFD1E60000C401002040420F0013
:10352000716881F80180C8E6FFDFC6E670B5FD4C22
:10353000002584F85C5025660AF039FF04F110017B
:10354000204604F007FC84F8305070BD70B50D467D
:10355000FDF7F2FE040000D1FFDF4FF4B8712846FA
:1035600013F091FE2434012105F1E0002C610AF0F2
:103570001FFF002800D0FFDF70BD0A46014602F1A0
:10358000E0000AF035BF70B50546406886B00178A6
:10359000092906D00C2933D00D292FD0FFDF06B022
:1035A00070BD46883046FDF7C7FE040000D1FFDF3E
:1035B00020782128F3D028281BD1686802210C30FC
:1035C00000F09DFFA8B168680821001D00F097FF7A
:1035D00078B104F12401304608F0E1FA04F029FA48
:1035E00000B1FFDF06B02046BDE870402921FDF79D
:1035F000D5BE06B0BDE8704004F0F3BB0121817177
:10360000686886883046FDF797FE040000D1FFDF2A
:1036100020782128C3D06868817909B1807808B101
:10362000FFDFBCE704F0DDFBE07FC10721D08007AE
:1036300005D594F8200000F01F00102817D00520B1
:1036400084F823002078292815D02428A7D13146D2
:1036500005200CF075FE22212046FDF79FFE01217A
:10366000304609F0F7F9002899D0FFDF97E70620E8
:10367000E6E70420E4E70121304609F0D9F9050026
:1036800000D1FFDF25212046FDF788FE03208DF8BD
:103690000000694605F1E0000AF0A1FE0228C0D052
:1036A0000028BED0FFDF7AE72DE9F04788B09A46C0
:1036B000164688468146FDF73FFE05003AD0287839
:1036C000222837D3232835D0E87FC00632D40027FC
:1036D0000121484609F0ACF9040005D1012100227E
:1036E000484609F09CF90446694600F064FF0098DA
:1036F00000B9FFDF00983CB1E0340461287822284B
:1037000004D0242802D005E0076103E025212846E3
:10371000FDF744FE009801214170C0F82490868096
:10372000C0E9028A01A90AF075FE022802D0002829
:1037300000D0FFDF08B011E570B586B00546FDF793
:10374000FBFD0078222814D90121284609F070F9E0
:1037500004002CD1FFDF2AE0B4F85E0004F1620619
:1037600030440178427829B121462846FFF731FDDF
:10377000B0B914E7ADF804200821284602AB07F0E1
:1037800083FB03900028F4D005208DF800006946E3
:1037900004F1E0000AF023FE022801D000B1FFDFAF
:1037A00002231022314604F15E0009F01CF8B4F83F
:1037B00060000028D0D1F2E610B586B00446FDF7CF
:1037C000BBFD0078222811D90121204609F030F9EB
:1037D000040000D1FFDF06208DF80000694604F1E7
:1037E000E0000AF0FCFD002800D0FFDF06B010BDAD
:1037F0002DE9F84F054600780C460027010904F131
:10380000080090463E46BA46009002297ED007291D
:1038100002D00A2909D142E068680178092905D057
:103820000C292CD00D292AD0FFDF73E114271C2688
:10383000002C6CD04088A080FDF77EFD5FEA000977
:1038400000D1FFDF99F8170009F118014008009A2C
:10385000FDF7D6FE68688089208269684868C4F8E8
:1038600012008868C4F81600A07E20F0060040F020
:103870000100A07699F81E0040F040014FE01A27A1
:103880000A26002CD5D08088A080FDF755FD0500C4
:1038900000D1FFDF28460099FFF76CFC3AE10CB13C
:1038A000A88BA080287A4FF0010B0B287ED006DC75
:1038B00001287CD0022808D0032804D137E00D2845
:1038C00076D00E2875D0FFDF24E11E270926002CB4
:1038D000AFD0A088FDF730FD5FEA000900D1FFDF1F
:1038E000287B00F003000128207A1DD020F0010081
:1038F0002072297B890861F341002072297BC90865
:1039000061F382002072297B090901E0F7E0AEE053
:1039100061F3C300207299F81E0040F0800189F81D
:103920001E10F7E0A401002040F00100E0E713279B
:103930000D26002CA6D0A088FDF7FEFC81460121B3
:10394000A08809F075F8050000D1FFDF686F817865
:1039500001F003010129217A50D021F001012172E7
:1039600083789B0863F3410121728378DB0863F35A
:103970008201217283781B0963F3C30121720378EA
:1039800063F306112172437863F3C711217284F83F
:1039900009A0C178A1720279E17A62F30001E172B3
:1039A0000279520862F34101E17203E029E067E025
:1039B0004EE05FE00279920862F38201E1720279DF
:1039C000D20862F3C301E1724279217B62F3000104
:1039D00021734279520862F34101217342799208BE
:1039E00062F3820121734079C00860F3C30121733F
:1039F00099F8000023282AD9262139E041F0010155
:103A0000ADE71827102694B3A088FDF795FC009029
:103A10000121A08809F00CF85FEA000900D1FFDF5E
:103A2000E868A06099F8000040F0040189F80010EF
:103A300099F80100800708D584F80CB00098007848
:103A4000232867D92721009852E084F80CA061E070
:103A500015270F265CB1A088FDF76EFC8146062273
:103A6000E868009907F096F984F80EB086E042E025
:103A700048463DE016270926ECB3287B207249E032
:103A8000287B19270E26B4B3C4F808A0A4F80CA00C
:103A9000012807D0022808D003280CD004280AD017
:103AA000FFDF15E084F808B001E002202072607AA0
:103AB00020F003000BE0697B042801F00F0141F0C6
:103AC00080012172F3D1607A20F00300401C607203
:103AD000A088FDF731FC0546007821281AD023285C
:103AE00000D0FFDF0121A08808F0B4FF2221284682
:103AF000FDF754FC0EE0FFE7A8F800600FE00CB102
:103B00006888A080287A032822D0042809D00528B4
:103B10003AD0FFDFA8F800600CB127806680002053
:103B200009E415270F26002CE6D0A088FDF704FC39
:103B30000121A08808F07CFF050000D1FFDFD5F847
:103B40001D000622009907F025F984F80EA0E1E790
:103B500017270926002CCFD0A088FDF7EDFB814662
:103B60000121A08808F064FF050000D1FFDF68781C
:103B7000800701D5022000E00120207299F80000A2
:103B80002328C7D9272173E719270E26002CB3D085
:103B9000A088FDF7D1FB5FEA000900D1FFDFC4F880
:103BA00008A0A4F80CA084F808A0A07A40F00300B4
:103BB000A07299F81F1061F38200A07299F81F108B
:103BC000C1F34002114205D099F8201001F01F0105
:103BD000102926D020F00800A07299F81F00410893
:103BE000607A61F3C3006072697A01F00301012910
:103BF00090D140F004006072E97A207B61F300000C
:103C00002073AA7A617B62F300016173EA7A520839
:103C100062F341002073A87A400860F341016173A8
:103C200078E740F00800D7E710B5F94C30B101460D
:103C3000102204F1200013F085FA012084F83000EE
:103C400010BD10B5044600F0A6FCF1492046102234
:103C5000BDE81040203113F075BA70B5EC4D060088
:103C60004FF0000412D00CF0B7FB08B110240BE0A9
:103C70000621304607F075F8411C04D02866012063
:103C800085F85C0000E00724204670BD0020F7E7BF
:103C9000007810F00F0204D0012A05D0022A0CD1BE
:103CA00010E0000909D10AE00009012807D0022824
:103CB00005D0032803D0042801D0072070470870DE
:103CC000002070470620704705282AD2DFE800F060
:103CD00003070F171F00087820F0FF001EE0087888
:103CE00020F00F00401C20F0F000103016E00878A3
:103CF00020F00F00401C20F0F00020300EE008788B
:103D000020F00F00401C20F0F000303006E0087872
:103D100020F00F00401C20F0F00040300870002020
:103D20007047072070472DE9F043804687B00D4665
:103D30004FF0000908460CF09CFBA8B94046FDF77F
:103D4000FBFA060003D0307822280BD104E043F2BE
:103D5000020007B0BDE8F08335B1B07FC10601D4E1
:103D6000000703D50820F4E71020F2E7F07FC00633
:103D700001D50D20EDE700270121404608F058FE4F
:103D8000040006D101210022404608F048FE04004C
:103D900005D0694600F00FFC009818B901E0042036
:103DA000D7E7FFDF00980221E0344170C0F824809B
:103DB0004461078101210171297801F00102017E2E
:103DC00062F3010101762A78520862F382010176DA
:103DD0002A78920862F3C30101762A78D20862F346
:103DE0000411017624213046FDF7D8FA01A9009884
:103DF0000AF010FB022801D000B1FFDF4846A8E717
:103E00002DE9FF4F9046834A0D4699B09A4607CA5E
:103E100015AB4FF0000983E807001998FDF78CFAFD
:103E2000060006D03078262806D008201DB0BDE850
:103E3000F08F43F20200F9E725B94046FFF7F6F8A4
:103E40000028F3D10121199808F0F2FD040000D1F7
:103E5000FFDF852D27D007DCEDB1812D1DD0822D10
:103E60001DD0832D08D11CE0862D1ED0882D1ED09C
:103E7000892D1ED08A2D1ED00F2020710F281CD016
:103E800003F0ACFFD8B101208DF82800201D0B9065
:103E90002079B0B12EE10020EFE70120EDE702200C
:103EA000EBE70320E9E70520E7E70620E5E7082040
:103EB000E3E70920E1E70A20DFE70720B6E7112062
:103EC000B4E798F80000D4E91D754208F07F00219E
:103ED00062F30000F07798F80020920862F3410046
:103EE000F07798F80000C209607862F341006070D2
:103EF00098F800000209207862F34710207098F8C3
:103F00000000C208607862F30000607098F8010059
:103F1000607198F8000000F00102A87862F30100D7
:103F2000A870F27F62F38200A870F27F520862F3F9
:103F3000C300A870627862F30410A8702278C0F3FE
:103F4000C00052092A706278C2F340026A7098F881
:103F50000220EA7069712971B978C1F3C001084083
:103F60005FEA000B2ED050460CF036FA98BBDAF818
:103F70000C000CF031FA70BBDAF81C000CF02CFAD3
:103F800048BBDAF80C00A060DAF81C00E060797831
:103F9000607801F0010140EA41006070B978C0B278
:103FA000C1F30011891E084060700020207706F1DF
:103FB00017006061701CA061A87800F00300012860
:103FC0000AD049E07978607801F00101FD2242EAE7
:103FD00041010840E1E719E0B87800F0030001284A
:103FE0003AD12A1D691D404600F094FA28793979A2
:103FF00008408DF84C0069797A7911408DF81810D5
:10400000084329D050460CF0E7F928B110200DE7FD
:10401000A4010020D87501000AF1100004F5AE7368
:1040200004F18C028DE80D00002113AB5A462046A6
:10403000FFF73FF80028EAD104F5B07204F1A403B9
:10404000CDF800A0CDE90132012106AB5A46204649
:10405000FFF72FF80028DAD16078800722D4A878FB
:10406000B978C0F38000C1F3800108431AD02978E1
:1040700015AA387832F811204300DA4002F003091B
:10408000B9F1030F01D14FF00209BBF1000F09D0C4
:10409000012901D0042905D1012801D0042801D12A
:1040A0004FF00409F07F40F001006BF34100F0771E
:1040B000607881074FF003000CD5A071BBF1000FB1
:1040C00018D100BF8DF8500014AA3146199800F09D
:1040D0004BFA0FE00221B9F1020F1AD0B9F1010F2A
:1040E00019D0B9F1040F22D00020A071F07F20F088
:1040F0000100F07725213046FDF750F90AA904F1B7
:10410000E0000AF06CF910B1022800D0FFDF0020B7
:104110008CE6A171D6E7A1710D2104F1200013F006
:10412000B2F8207840F0020020700420CAE7012095
:10413000A071DFE72DE9F04387B090468946044639
:104140000025FDF7F9F8070004D03878272804D0B7
:104150000820FEE543F20200FBE50121204608F0BD
:1041600067FC040000D1FFDFA6795FEA090005D0F3
:10417000012821D0B9F1020F26D110E0B8F1000FCB
:1041800022D1012E05D0022E05D0032E05D0FFDF4F
:104190002DE00C252BE0012529E0022527E04046F3
:1041A0000CF01AF9B0B9032E0ED11022414604F1D9
:1041B0001D0012F0C7FF1AE0012E02D0022E03D11B
:1041C00004E0B8F1000F12D00720C2E540460CF021
:1041D00003F908B11020BCE5102104F11D0013F013
:1041E00030F80621404606F0BCFDC4F81D002078DA
:1041F000252140F0020020703846FDF7CFF82078E6
:10420000C10713D020F00100207002208DF80000BB
:1042100004F11D0002908DF804506946C3300AF085
:10422000DEF8022803D010B1FFDF00E02577002080
:104230008FE530B587B00D460446FDF77DF860B1D7
:104240000121204608F0F4FB04000CD028460CF0B5
:10425000C3F828B1102007B030BD43F20200FAE7DE
:104260002078400701D40820F5E7294604F13D00F5
:104270002022054612F066FF207840F010002070E2
:1042800001070FD520F00800207007208DF80000EE
:10429000694604F1E00001950AF0A1F8022801D076
:1042A00000B1FFDF0020D6E770B50D460646FDF7EA
:1042B00043F818B10078272817D102E043F2020032
:1042C00070BD0121304608F0B3FB040000D1FFDFD0
:1042D000A079022809D16078C00706D02A46214675
:1042E0003046FEF776FF10B10FE0082070BDB4F83D
:1042F00060000E280BD204F1620102231022081F75
:1043000008F03BFA012101704570002070BD1120BA
:1043100070BD70B5064614460D4608460CF05CF8B4
:1043200018B920460CF07EF808B1102070BDA6F533
:104330007F40FF380ED03046FCF7FEFF38B14178A1
:1043400022464B08811C1846FDF75AF907E043F254
:10435000020070BD2046FDF751FD0028F9D1102163
:10436000E01D0BF014FDE21D294604F1170000F0DA
:1043700032F9002070BD2DE9F04104468AB015469F
:104380000E46002708460CF074F818B928460CF0C1
:1043900070F818B110200AB0BDE8F0812046FCF793
:1043A000CBFF5FEA000804D098F80000272810D15E
:1043B00002E043F20200EEE70121204608F038FB5C
:1043C000040000D1FFDF2078400702D56078800725
:1043D00001D40820DFE7D4E91D01497801B18DB18E
:1043E000407800B176B1ADB1EA1D06A8E16800F0F1
:1043F000F2F8102206A905F1170012F077FE18B1A5
:10440000042707E00720C6E71022E91D04F12D006C
:1044100012F098FE2EB11022F11D04F11D0012F0D1
:1044200091FE2078252140F0020020704046FCF7E4
:10443000B5FF2078C10715D020F0010020700220C0
:104440008DF8000004F11D000290103003908DF8EB
:1044500004706946B33009F0C2FF022803D010B1DE
:10446000FFDF00E02777002095E770B50D46064690
:104470000BB1072070BDFCF75FFF040007D0207868
:10448000222802D3A07F400604D4082070BD43F246
:10449000020070BDA5B12946304607F080FB03F04D
:1044A000C8FA297C4A08E17F62F30001E1772A7C9F
:1044B00062F34101E177297C890884F8201004E047
:1044C000304607F08FFB03F0B4FAA17F21F04001E2
:1044D000A17770BD70B50D46FCF72EFF040005D026
:1044E00028460BF09FFF20B1102070BD43F2020060
:1044F00070BD29462046FEF73DFE002070BD04E059
:1045000010F8012B0AB100207047491E89B2F7D27A
:104510000120704710B5C4780B7864F300030B706A
:10452000C478640864F341030B70C478A40864F38E
:1045300082030B70C478E40864F3C3030B7003793F
:10454000117863F30001117003795B0863F3410193
:10455000117003799B0863F3820111700079C00820
:1045600060F3C301117010BD70B51546064603F027
:1045700035FC040000D1FFDF207820F00F00801C04
:1045800020F0F0002030207066802868A060BDE830
:10459000704003F026BC10B5134C94F8300000288E
:1045A00008D104F12001A1F1100009F05AFF012007
:1045B00084F8300010BD10B190F8B9202AB10A4833
:1045C00090F8350018B1002003E0B83001E006484B
:1045D00034300860704708B50023009313460A463C
:1045E00008F021FC08BD0000A4010020F0B5007B0C
:1045F000059F1E4614460D46012800D0FFDF0C2003
:1046000030803A203880002C08D0287A032806D041
:10461000287B012800D0FFDF17206081F0BDA8892A
:10462000FBE72DE9F04786B0144691F80C900E9AFE
:104630000D46B9F1010F0BD01021007B2E8A884660
:10464000052807D0062833D0FFDF06B0BDE8F08785
:104650000221F2E7E8890C2100EB400001EB400069
:10466000188033201080002CEFD0E889608100276B
:104670001AE00096688808F1020301AA696900F04F
:1046800085FF06EB0800801C07EB470186B204EBB0
:104690004102BDF8040090810DF1060140460E3242
:1046A00009F048FF7F1CBFB26089B842E1D8CCE76F
:1046B00034201080E889B9F1010F11D0122148434C
:1046C0000E301880002CC0D0E88960814846B9F1CE
:1046D000010F00D00220207300270DF1040A1FE013
:1046E0000621ECE70096688808F1020301AA6969CF
:1046F00000F04CFF06EB0800801C86B2B9F1010FF8
:1047000012D007EBC70004EB4000BDF80410C181D4
:1047100010220AF10201103012F014FD7F1CBFB20A
:104720006089B842DED890E707EB470104EB41020D
:10473000BDF80400D0810AF102014046103209F0B0
:10474000F9FEEBE72DE9F0470E4688B090F80CC073
:1047500096F80C80378AF5890C20109902F10C0428
:104760004FF0000ABCF1030F08D0BCF1040F3ED09B
:10477000BCF1070F7DD0FFDF08B067E705EB850CC4
:1047800000EB4C00188031200880002AF4D0A8F1FA
:10479000060000F0FF09558125E0182101A812F05C
:1047A00072FD00977088434601AA716900F0EEFE21
:1047B000BDF804002080BDF80600E080BDF80800C8
:1047C0002081A21C0DF10A01484609F0B3FEB9F19F
:1047D000000F00D018B184F804A0A4F802A007EBE1
:1047E000080087B20A346D1EADB2D6D2C4E705EB1D
:1047F000850C00EB4C00188032200880002ABBD0CA
:10480000A8F1050000F0FF09558137E00097708896
:10481000434601AA716900F0B9FE9DF80600BDF893
:104820000410E1802179420860F3000162F3410144
:10483000820862F38201C20862F3C301020962F3D3
:104840000411420962F34511820962F38611217154
:10485000C0096071BDF80700208122460DF10901F1
:10486000484609F067FE18B184F802A0A4F800A039
:1048700000E007E007EB080087B20A346D1EADB216
:10488000C4D279E7A8F1020084B205FB08F000F178
:104890000E0CA3F800C035230B80002AA6D055814A
:1048A0009481009783B270880E32716900F06EFEB9
:1048B00062E72DE9F84F1E460A9D0C4681462AB153
:1048C000607A00F58070D080E089108199F80C0042
:1048D0000C274FF000084FF00E0A0D2873D2DFE8C6
:1048E00000F09E070E1C28303846556A737373001B
:1048F000214648460095FFF779FEBDE8F88F207BFA
:104900009146082802D0032800D0FFDF37803020EE
:104910000AE000BFA9F80A80EFE7207B914604284F
:1049200000D0FFDF378031202880B9F1000FF1D1AE
:10493000E3E7207B9146042800D0FFDF3780322058
:10494000F2E7207B9146022800D0FFDF378033203A
:10495000EAE7207B1746022800D0FFDF3420A6F8C4
:1049600000A02880002FC8D0A7F80A80C5E7207BC8
:104970001746042800D0FFDF3520A6F800A02880C5
:10498000002FBAD04046A7F80A8012E0207B1746D5
:10499000052802D0062800D0FFDF10203080362006
:1049A0002880002FA9D0E0897881A7F80E80B9F877
:1049B0000E00B881A1E7207B9146072800D0FFDFD9
:1049C00037803720B0E72AE04FF0120018804FF010
:1049D00038001700288090D0E0897881A7F80E80F1
:1049E000A7F8108099F80C000A2805D00B2809D0E8
:1049F0000C280DD0FFDF80E7207B0A2800D0FFDFE6
:104A000001200AE0207B0B2800D0FFDF042004E017
:104A1000207B0C2800D0FFDF052038736DE7FFDF17
:104A20006BE770B50C460546FCF786FC20B10078B4
:104A3000222804D2082070BD43F2020070BD052177
:104A4000284607F0F5FF206008B1002070BD032064
:104A500070BD30B44880087820F00F00C01C20F0F2
:104A6000F000903001F8080B1DCA81E81D0030BC31
:104A700003F0B7B92DE9FF4784B0002782460297BB
:104A8000079890468946123004F0D8F8401D20F06F
:104A90000306079828B907A95046FFF7C2FF002868
:104AA00053D1B9F1000F05D00798017B19BB05253B
:104AB00004681BE098F80000092803D00D2812D0E4
:104AC000FFDF45E0079903254868B0B3497B42887A
:104AD0007143914238D98AB2B3B2011D07F039FE51
:104AE0000446078002E0079C042508340CB12088A6
:104AF00010B1032D28D02BE007980121123004F0CB
:104B0000CFF8ADF80C00024602AB2946504606F03D
:104B1000BBF9070001D1A01C029007983A46123059
:104B2000C8F80400A8F802A003A94046029B04F0BC
:104B3000C4F8C0B1072814D200E005E0DFE800F0B7
:104B4000060811110F0A0C00132015E6002013E6C9
:104B5000112011E608200FE643F203000CE60720BF
:104B60000AE6032008E6BDF80C002346CDE90070F4
:104B70002A465046079900F019FD57B9032D08D170
:104B80000798B3B2417B406871438AB2011D07F0B8
:104B9000F4FDB9F1000FD9D0079981F80C90D5E751
:104BA0002DE9FE4F91461A881C468A468046FAB186
:104BB00002AB494606F068F9050019D04046A61C2C
:104BC000278808F079F83246072629463B460096A2
:104BD00007F0A5FC20882346CDE900504A465146FF
:104BE000404600F0E3FC002020800120BDE8FE8F5D
:104BF0000020FBE710B586B01C46AAB104238DF84F
:104C000000301388ADF808305288ADF80A208A7851
:104C10008DF80E200988ADF80C1000236A46214655
:104C2000FFF728FF06B010BD1020FBE770B50D465A
:104C3000052107F0FDFE040000D1FFDF294604F145
:104C40001200BDE8704004F014B82DE9F8430D4699
:104C50008046002603F0C2F804462878102878D24F
:104C6000DFE800F0773B3453313112313131083114
:104C7000313131312879001FC0B2022801D010280B
:104C800010D114BBFFDF35E004B9FFDF052140463A
:104C900007F0CEFE007B032806D004280BD007289F
:104CA00028D0FFDF072655E02879801FC0B20228F0
:104CB00020D050B1F6E72879401FC0B2022819D0A1
:104CC000102817D0EEE704B9FFDF13E004B9FFDFC7
:104CD000287901280ED1172137E00521404607F039
:104CE000A7FE070000D1FFDF07F11201404603F0E5
:104CF0009DFF2CB12A4621464046FFF7AAFE29E037
:104D000013214046FDF7B3FB24E004B9FFDF052182
:104D1000404607F08DFE060000D1FFDF694606F130
:104D2000120003F08DFF060000D0FFDFA9881729CD
:104D300001D2172200E00A46BDF80000824202D9E3
:104D4000014602E005E01729C5D3404600F03EFCCD
:104D5000D0E7FFDF3046BDE8F883401D20F00302B6
:104D600019B102FB01F0001D00E000201044704763
:104D700013B5009850B100244FEA0D0007F093FCE2
:104D8000002C02D1F74A009911601CBD01240020BB
:104D9000F4E72DE9F0470C4615462421204612F091
:104DA00072FA05B9FFDFA87860732888DFF8B4A32A
:104DB000401D20F00301AF788946DAF8000007F0C3
:104DC00090FC060000D1FFDF4FF000082660A6F837
:104DD000008077B109FB07F1091D0AD0DAF800005D
:104DE00007F07FFC060000D1FFDF6660C6F8008098
:104DF00001E0C4F80480298804F11200BDE8F047FE
:104E000003F006BF2DE9F047804601F112000D4680
:104E1000814603F013FF401DD24F20F003026E7B4A
:104E200014462968386807F087FC3EB104FB06F297
:104E3000121D03D06968386807F07EFC052007F072
:104E4000A3FD0446052007F0A7FD201A012802D182
:104E5000386807F03BFC49464046BDE8F04703F0A0
:104E6000ECBE70B50546052107F0E2FD040000D157
:104E7000FFDF04F112012846BDE8704003F0D6BE02
:104E80002DE9F04F91B04FF0000BADF834B0ADF814
:104E900004B047880C46054692460521384607F07F
:104EA000C7FD060000D1FFDF24B1A780A4F806B03B
:104EB000A4F808B0297809220B20B2EB111F7DD18C
:104EC0002A7A04F1100138274FF00C084FF001093D
:104ED0000391102A73D2DFE802F072F2F1F07F083A
:104EE000D2888D9F3DDBF3EEB6B6307B022800D032
:104EF000FFDFA88908EBC001ADF804103021ADF840
:104F00003410002C25D06081B5F80E9000271DE0EC
:104F100004EBC708317C88F80E10F189A8F80C1052
:104F2000CDF800906888042304AA296900F02EFBBC
:104F3000BDF81010A8F8101009F10400BDF8121007
:104F40007F1C1FFA80F9A8F81210BFB26089B8421E
:104F5000DED80DE1307B022800D0FFDFE98908EBC5
:104F6000C100ADF804003020ADF83400287B0A9071
:104F7000001FC0B20F90002CEBD06181B5F81090EB
:104F8000002725E0CDF800906888696903AA0A9B8C
:104F900000F0FCFA0A9804EBC70848441FFA80F9AD
:104FA00008F10C0204A90F9809F0C4FA18B188F8A6
:104FB0000EB0A8F80CB0BDF80C1001E0D4E0CFE0C2
:104FC000A8F81010BDF80E107F1CA8F81210BFB280
:104FD0006089B842D6D8CBE00DA8009001AB22463C
:104FE00029463046FFF71DFBC2E0307B082805D07C
:104FF000FFDF03E0307B082800D0FFDFE8891030B6
:10500000ADF804003620ADF83400002C3FD0A9895B
:105010006181F189A18127E0307B092800D0FFDF81
:10502000A88900F10C01ADF804103721ADF8341057
:10503000002C2CD06081E8890090AB89688804F14D
:105040000C02296956E0E8893921103080B2ADF8A8
:105050000400ADF83410002C74D0A9896181287A3D
:105060000E280AD002212173E989E181288A009063
:10507000EB8968886969039A3CE00121F3E70DA890
:10508000009001AB224629463046FFF75BFB6FE0FC
:10509000307B0A2800D0FFDF1220ADF80400ADF805
:1050A00034704CB3A9896181A4F810B0A4F80EB093
:1050B00084F80C905CE020E002E031E039E042E06E
:1050C000307B0B2800D0FFDF288AADF83470123017
:1050D000ADF8040084B104212173A9896181E989B3
:1050E000E181298A2182688A00902B8A688804F1EC
:1050F0001202696900F04AFA3AE0307B0C2800D0CD
:10510000FFDF1220ADF80400ADF834703CB3052188
:105110002173A4F80AB0A4F80EB0A4F810B027E0E8
:105120000DA8009001AB224629463046FFF75EFAF3
:105130001EE00DA8009001AB224629463046FFF73D
:10514000B8FB15E036E03B21ADF80400ADF83410B3
:1051500084B3A4F80690A4F808B084F80AB007E075
:10516000FFDF05E010000020297A012919D0FFDFB8
:10517000BDF80400AAF800007CB1BDF8340020801E
:10518000BDF804006080BDF83400392805D03B2804
:1051900003D03C2801D086F80CB011B00020BDE847
:1051A000F08F3C21ADF80400ADF8341014B1697AE9
:1051B000A172DDE7FFE7AAF80000EEE72DE9F8436A
:1051C00056880F46804615460521304607F030FCCC
:1051D000040000D1FFDF123400943B4641463046C4
:1051E0006A6803F09CFEB6E570B50D46052107F030
:1051F0001FFC040000D1FFDF294604F11200BDE8C6
:10520000704003F028BD70B50D46052107F010FC75
:10521000040000D1FFDF294604F11200BDE8704010
:1052200003F046BD70B50546052107F001FC0400FA
:1052300000D1FFDF04F1080321462846BDE8704095
:105240000422ADE470B50546052107F0F1FB04002A
:1052500000D1FFDF214628462368BDE870400522C3
:105260009EE470B50646052107F0E2FB040000D17C
:10527000FFDF04F1120003F0E1FC401D20F0030504
:1052800011E0011D00880322431821463046FFF734
:1052900087FC00280BD0607BABB2684382B26068A9
:1052A000011D07F0A0FA606841880029E9D170BDAE
:1052B00070B50E46054602F091FD040000D1FFDFF7
:1052C0000120207266726580207820F00F00C01CDB
:1052D00020F0F00030302070BDE8704002F081BD59
:1052E0002DE9F0438BB00D461446814606A9FFF721
:1052F00098FB002814D14FF6FF7601274FF4205871
:105300008CB103208DF800001020ADF8100007A824
:10531000059007AA204604A909F02BF978B10720C7
:105320000BB0BDE8F0830820ADF808508DF80E7082
:105330008DF80000ADF80A60ADF80C800CE006981E
:10534000A17801742188C1818DF80E70ADF80850E4
:10535000ADF80C80ADF80A606A4602214846069B0B
:10536000FFF788FBDCE708B501228DF8022042F642
:105370000202ADF800200A4603236946FFF73AFC13
:1053800008BD08B501228DF8022042F60302ADF8EF
:1053900000200A4604236946FFF72CFC08BD00B52F
:1053A00087B079B102228DF800200A88ADF8082074
:1053B0004988ADF80A1000236A460521FFF75AFB19
:1053C00007B000BD1020FBE709B1072312E4072056
:1053D000704770B588B00D461446064606A9FFF71B
:1053E00020FB00280ED17CB10620ADF808508DF8C6
:1053F0000000ADF80A40069B6A460821DC81304671
:10540000FFF738FB08B070BD05208DF80000ADF83F
:105410000850F0E700B587B059B107238DF8003088
:10542000ADF80820039100236A460921FFF722FB0B
:10543000C6E71020C4E770B588B00C4606460025C4
:1054400006A9FFF7EEFA0028DCD1069801211230F8
:1054500003F026FC9CB12178062921D2DFE801F077
:10546000200505160318801E80B2C01EE28880B297
:105470000AB1A3681BB1824203D90C20C2E71020F5
:10548000C0E7042904D0A08850B901E00620B9E79C
:10549000012913D0022905D004291CD005292AD0BE
:1054A0000720AFE709208DF800006088ADF80800FC
:1054B000E088ADF80A00A068039023E00A208DF888
:1054C00000006088ADF80800E088ADF80A00A06828
:1054D0000A25039016E00B208DF800006088ADF8D7
:1054E0000800A088ADF80A00E088ADF80C00A068BC
:1054F0000B25049006E00C208DF8000060788DF8F4
:1055000008000C256A4629463046069BFFF7B2FA8A
:1055100078E700B587B00D228DF80020ADF80810AF
:1055200000236A461946FFF7A5FA49E700B587B098
:1055300071B102228DF800200A88ADF80820498850
:10554000ADF80A1000236A460621FFF793FA37E701
:10555000102035E770B586B0064601200D46ADF83F
:1055600008108DF80000014600236A463046FFF718
:1055700081FA040008D12946304601F0BDFA002125
:10558000304601F0D7FA204606B070BDF8B51C468B
:1055900015460E46069F07F07DFB2346FF1DBCB255
:1055A00031462A46009406F086FFF8BD30B4114615
:1055B000DDE902423CB1032903D0002330BC05F0F1
:1055C00099BD0123FAE71A8030BC704770B50C46CC
:1055D0000546FFF72BFB2146284601F09CFA28469A
:1055E000BDE87040012101F0A5BA000018B1817832
:1055F000012938D101E010207047018842F60112DC
:10560000881A914231D018DC42F60102A1EB020067
:1056100091422AD00CDC41B3B1F5C05F25D06FF4C4
:10562000C050081821D0A0F57060FF381BD11CE0D5
:1056300001281AD002280AD117E0B0F5807F14D0D3
:1056400008DC012811D002280FD003280DD0FF2834
:1056500009D10AE0B0F5817F07D0A0F5807003384A
:1056600003D0012801D0002070470F2070470A287E
:105670001ED007DC18D2DFE800F0191B1F1F171F10
:10568000231D1F21102815D008DC0B2812D00C2850
:1056900010D00D2816D00F2806D10DE011280BD000
:1056A00084280BD087280FD0032070470020704734
:1056B00005207047072070470F207047042070476F
:1056C000062070470C20704743F20200704738B53F
:1056D0000C46050041D06946FEF7DAFA002819D1D8
:1056E0009DF80010607861F3020060706946681CE4
:1056F000FEF7CEFA00280DD19DF80010607861F316
:10570000C5006070A978C1F34101012903D00229C5
:1057100005D0072038BD217821F0200102E0217852
:1057200041F020012170410704D0A978C90861F334
:1057300086106070607810F0380F07D0A9780909DA
:1057400061F3C710607010F0380F02D16078400626
:1057500003D5207840F040002070002038BD70B59F
:1057600004460020088015466068FFF7B0FF002857
:1057700016D12089A189884211D860688078C00735
:105780000AD0B1F5007F0AD840F20120B1FBF0F257
:1057900000FB1210288007E0B1F5FF7F01D90C2033
:1057A00070BD01F201212980002070BD10B5047880
:1057B000137864F3000313700478640864F34103FE
:1057C00013700478A40864F3820313700478E40867
:1057D00064F3C30313700478240964F3041313708F
:1057E0000478640964F3451313700078800960F34A
:1057F0008613137031B10878C10701D1800701D534
:10580000012000E0002060F3C713137010BD427840
:10581000530702D002F0070306E012F0380F02D05F
:10582000C2F3C20300E001234A7863F302024A7024
:10583000407810F0380F02D0C0F3C20005E04307F3
:1058400002D000F0070000E0012060F3C5024A70BA
:1058500070472DE9F04F95B00D00824612D012210D
:10586000284611F0EEFC4FF6FF7B05AA01215846B1
:1058700005F0B7F80024264637464FF420586FF459
:10588000205972E0102015B0BDE8F08F9DF81E0081
:1058900001280AD1BDF81C1041450BD011EB0900BD
:1058A0000AD001280CD002280CD0042C0ED0052CD4
:1058B0000FD10DE0012400E00224BDF81A6008E0D9
:1058C000032406E00424BDF81A7002E0052400E079
:1058D0000624BDF81A10514547D12C74BEB34FF0C1
:1058E000000810AA4FF0070ACDE90282CDE900A80E
:1058F0000DF13C091023CDF8109042463146584630
:1059000005F022F908BBBDF83C002A46C0B210A938
:1059100008F010FEC8B9AE81CFB1CDE900A80DF1F5
:10592000080C0AAE40468CE8410213230022394697
:10593000584605F009F940B9BDF83C00F11CC01EFD
:10594000C0B22A1D08F0F6FD10B103209BE70AE063
:10595000BDF82900E881062C05D19DF81E00A8722B
:10596000BDF81C00288100208DE705A805F045F84A
:1059700000288BD0FFF77BFE85E72DE9F0471C461A
:10598000DDE90978DDF8209015460E00824600D149
:10599000FFDF0CB1208818B1D5B11120BDE8F08728
:1059A000022D01D0012100E0002106F1140003F0D6
:1059B00009FFA8F8000002463B462946504605F07C
:1059C00063FAC9F8000008B9A41C3C600020E5E7B0
:1059D0001320E3E7F0B41446DDE904528DB100234F
:1059E00014B1022C09D101E0012306E00D7CEE0781
:1059F00003D025F0010501230D742146F0BC05F00C
:105A000079BB1A80F0BC70472DE9FE4F91461A8889
:105A10001C468A468046FAB102AB494605F034FA84
:105A2000050019D04046A61C278807F045F93246E4
:105A3000072629463B46009606F071FD208823463E
:105A4000CDE900504A4651464046FFF7C3FF0020CB
:105A500020800120BDE8FE8F0020FBE72DE9F04704
:105A600086B09146DDE90E460F46824603AA05A997
:105A700004A8109D8DE807009846324621465046FE
:105A8000FFF77BFF049909B1012200E000222A7090
:105A9000002817D1F84A03AB1060059A009104F171
:105AA0001400CDE901204A463946504604F041FA37
:105AB00090B108280ED2DFE800F00407040D0D09AC
:105AC0000B0B002006B069E71120FBE70720F9E780
:105AD0000820F7E70320F5E7BDF80C100498CDE99E
:105AE00000014346324621465046FFF773FFE8E780
:105AF0002DE9F04389B00D46DDE9108781461C464B
:105B00001646142103A811F0BEFB012002218DF8D6
:105B100010108DF80C008DF81170ADF8146064B1A0
:105B2000A278D20709D08DF81600E088ADF81A00E7
:105B3000A088ADF81800A068079008A80095CDE9E6
:105B40000110424603A948466B68FFF787FF09B07A
:105B5000BDE8F083F0B58BB00024064606940794A8
:105B60000727089405A80994019400970294CDE9A9
:105B700003400D4610232246304604F0E5FF78B975
:105B80000AA806A9019400970294CDE90310BDF874
:105B9000143000222946304604F0ACFD002801D024
:105BA000FFF765FD0BB0F0BD04F04CBC2DE9FC41E6
:105BB0000C468046002602F011F9054620780D2893
:105BC0007ED2DFE800F0BC0713B325BD49496383EB
:105BD000AF959B00A848006820B1417841F01001C2
:105BE0004170ADE0404602F029F9A9E004214046A9
:105BF00006F01EFF070000D1FFDF07F11401404649
:105C000003F074FDA5BB13214046FCF730FC97E080
:105C10000421404606F00CFF070000D1FFDFE088BA
:105C2000ADF800000020B8819DF80000010704D500
:105C3000C00602D5A088B88105E09DF801004006A5
:105C40007ED5A088F88105B9FFDF22462946404667
:105C500001F066FC022673E0E188ADF800109DF8C3
:105C6000011009060FD5072803D006280AD00AE03C
:105C700024E00421404606F0DBFE060000D1FFDFF1
:105C8000A088F0810226CDB9FFDF17E0042140464D
:105C900006F0CEFE070000D1FFDF07F1140004F08C
:105CA00008FC90F0010F02D1E079000648D5387C5D
:105CB000022640F00200387405B9FFDF224600E0FA
:105CC0003DE02946404601F02BFC39E004214046E6
:105CD00006F0AEFE017C002D01F00206C1F340018A
:105CE0006171017C21F002010174E7D1FFDFE5E77A
:105CF00002260121404602F0D3F821E0042140466B
:105D000006F096FE0546606800902089ADF8040014
:105D100001226946404602F0E4F8287C20F00200A7
:105D200028740DE0002DC9D1FFDFC7E7022600214E
:105D30004046FFF768FA002DC0D1FFDFBEE7FFDF66
:105D40003046BDE8FC813EB50C0009D001466B46EB
:105D500001AA002004F07AFF20B1FFF788FC3EBDC5
:105D600010203EBD00202080A0709DF8050002A9F3
:105D700000F00700FDF7A8FF50B99DF8080020705B
:105D80009DF8050002A9C0F3C200FDF79DFF08B110
:105D900003203EBD9DF8080060709DF80500C10914
:105DA000A07861F30410A0709DF80510890961F3D3
:105DB000C300A0709DF80410890601D5022100E0FF
:105DC000012161F342009DF8001061F30000A07012
:105DD00000203EBD70B5144606460D4651EA04004B
:105DE00005D075B108460AF03BFB78B901E0072001
:105DF00070BD2946304604F08AFF10B1BDE87040FE
:105E000035E454B120460AF02BFB08B1102070BDD8
:105E100021463046BDE8704095E7002070BD2DE971
:105E2000FC5F0C4690460546002701780822007A60
:105E30003E46B2EB111F7DD104F10A0100910A31F7
:105E4000821E4FF0020A04F1080B0191092A72D256
:105E5000DFE802F0EDE005F528287BAACE0068888F
:105E6000042106F0E5FD060000D1FFDFB08928B16E
:105E700052270726C3E00000080200205127102601
:105E8000002C7DD06888A0800120A071A889002204
:105E90000099FFF79FFF002873D1A8892081288AE5
:105EA000E081D1E0B5F81290072824D1E87B000604
:105EB00021D5512709F1140086B2002CE1D0A88920
:105EC00000220099FFF786FF00285AD16888A08039
:105ED00084F806A0A88920810120A073288A208246
:105EE000A4F81290A88A009068884B46A969019A84
:105EF00001F0F3FAA8E0502709F1120086B2002C55
:105F00003ED0A88900225946FFF764FF002838D107
:105F10006888A080A889E080287A072813D002200A
:105F20002073288AE081E87BC0096073A4F8109090
:105F3000A88A01E085E082E0009068884B4604F181
:105F40001202A969D4E70120EAE7B5F812905127B7
:105F500009F1140086B2002C66D06888042106F08E
:105F600067FD83466888A080A88900220099FFF712
:105F700031FF00286ED184F806A0A889208101E0B5
:105F800052E067E00420A073288A2082A4F81290CF
:105F9000A88A009068884B46A969019A01F09DFA89
:105FA000A989ABF80E104FE06888FBF7C5F90746E2
:105FB0006888042106F03CFD064607B9FFDF06B9F4
:105FC000FFDF687BC00702D05127142601E050276D
:105FD00012264CB36888A080502F06D084F806A003
:105FE000287B594601F089FA2EE0287BA11DF9E7AC
:105FF000FE49A8894989814205D1542706269CB1CA
:106000006888A08020E053270BE06888A080A889DA
:10601000E08019E06888042106F00AFD00B9FFDF7E
:1060200055270826002CF0D1A8F8006011E056276B
:106030000726002CF8D06888A080002013E0FFDF3E
:1060400002E0012808D0FFDFA8F800600CB127802B
:1060500066800020BDE8FC9F57270726002CE3D070
:106060006888A080687AA071EEE7401D20F00300E8
:1060700009B14143091D01EB4000704713B5DB4AEC
:1060800000201071009848B10024684606F00BFB10
:10609000002C02D1D64A009911601CBD01240020B9
:1060A000F4E770B50D46064686B014465C212846D6
:1060B00011F0E9F804B9FFDFA0786874A2782188AC
:1060C000284601F044FA0020A881E881228805F1E1
:1060D0001401304603F0EFFA6A460121304604F01D
:1060E00080FC19E09DF80300000715D5BDF80610E7
:1060F0003046FFF72FFD9DF80300BDF8061040F075
:1061000010008DF80300BDF80300ADF81400FF2364
:106110003046059A04F0C6FD684604F06EFC00287F
:10612000E0D006B070BD10B50C4601F1140003F0CC
:10613000F9FA0146627C2046BDE8104001F03CBA05
:1061400070B50546042106F073FC040000D1FFDFA2
:1061500004F114010C46284603F0C8FA21462846EB
:10616000BDE8704003F0C9BA70B58AB00C46064667
